{
  "_format": "hh-sol-artifact-1",
  "contractName": "Cryptau",
  "sourceName": "contracts/Cryptau.sol",
  "abi": [
    {
      "inputs": [],
      "stateMutability": "nonpayable",
      "type": "constructor"
    },
    {
      "anonymous": false,
      "inputs": [
        {
          "indexed": true,
          "internalType": "address",
          "name": "owner",
          "type": "address"
        },
        {
          "indexed": true,
          "internalType": "address",
          "name": "approved",
          "type": "address"
        },
        {
          "indexed": true,
          "internalType": "uint256",
          "name": "tokenId",
          "type": "uint256"
        }
      ],
      "name": "Approval",
      "type": "event"
    },
    {
      "anonymous": false,
      "inputs": [
        {
          "indexed": true,
          "internalType": "address",
          "name": "owner",
          "type": "address"
        },
        {
          "indexed": true,
          "internalType": "address",
          "name": "operator",
          "type": "address"
        },
        {
          "indexed": false,
          "internalType": "bool",
          "name": "approved",
          "type": "bool"
        }
      ],
      "name": "ApprovalForAll",
      "type": "event"
    },
    {
      "anonymous": false,
      "inputs": [
        {
          "indexed": true,
          "internalType": "uint256",
          "name": "tokenId",
          "type": "uint256"
        },
        {
          "indexed": false,
          "internalType": "address payable",
          "name": "seller",
          "type": "address"
        },
        {
          "indexed": false,
          "internalType": "address payable",
          "name": "owner",
          "type": "address"
        },
        {
          "indexed": false,
          "internalType": "uint256",
          "name": "price",
          "type": "uint256"
        },
        {
          "indexed": false,
          "internalType": "bool",
          "name": "sold",
          "type": "bool"
        }
      ],
      "name": "MarketItemCreated",
      "type": "event"
    },
    {
      "anonymous": false,
      "inputs": [
        {
          "indexed": true,
          "internalType": "address",
          "name": "from",
          "type": "address"
        },
        {
          "indexed": true,
          "internalType": "address",
          "name": "to",
          "type": "address"
        },
        {
          "indexed": true,
          "internalType": "uint256",
          "name": "tokenId",
          "type": "uint256"
        }
      ],
      "name": "Transfer",
      "type": "event"
    },
    {
      "inputs": [
        {
          "internalType": "address",
          "name": "to",
          "type": "address"
        },
        {
          "internalType": "uint256",
          "name": "tokenId",
          "type": "uint256"
        }
      ],
      "name": "approve",
      "outputs": [],
      "stateMutability": "nonpayable",
      "type": "function"
    },
    {
      "inputs": [
        {
          "internalType": "address",
          "name": "owner",
          "type": "address"
        }
      ],
      "name": "balanceOf",
      "outputs": [
        {
          "internalType": "uint256",
          "name": "",
          "type": "uint256"
        }
      ],
      "stateMutability": "view",
      "type": "function"
    },
    {
      "inputs": [
        {
          "internalType": "uint256",
          "name": "tokenId",
          "type": "uint256"
        }
      ],
      "name": "createMarketSale",
      "outputs": [],
      "stateMutability": "payable",
      "type": "function"
    },
    {
      "inputs": [
        {
          "internalType": "string",
          "name": "tokenURI",
          "type": "string"
        },
        {
          "internalType": "uint256",
          "name": "price",
          "type": "uint256"
        }
      ],
      "name": "createToken",
      "outputs": [
        {
          "internalType": "uint256",
          "name": "",
          "type": "uint256"
        }
      ],
      "stateMutability": "payable",
      "type": "function"
    },
    {
      "inputs": [],
      "name": "fetchItemsListed",
      "outputs": [
        {
          "components": [
            {
              "internalType": "uint256",
              "name": "tokenId",
              "type": "uint256"
            },
            {
              "internalType": "address payable",
              "name": "seller",
              "type": "address"
            },
            {
              "internalType": "address payable",
              "name": "owner",
              "type": "address"
            },
            {
              "internalType": "uint256",
              "name": "price",
              "type": "uint256"
            },
            {
              "internalType": "bool",
              "name": "sold",
              "type": "bool"
            }
          ],
          "internalType": "struct Cryptau.MarketItem[]",
          "name": "",
          "type": "tuple[]"
        }
      ],
      "stateMutability": "view",
      "type": "function"
    },
    {
      "inputs": [],
      "name": "fetchMarket",
      "outputs": [
        {
          "components": [
            {
              "internalType": "uint256",
              "name": "tokenId",
              "type": "uint256"
            },
            {
              "internalType": "address payable",
              "name": "seller",
              "type": "address"
            },
            {
              "internalType": "address payable",
              "name": "owner",
              "type": "address"
            },
            {
              "internalType": "uint256",
              "name": "price",
              "type": "uint256"
            },
            {
              "internalType": "bool",
              "name": "sold",
              "type": "bool"
            }
          ],
          "internalType": "struct Cryptau.MarketItem[]",
          "name": "",
          "type": "tuple[]"
        }
      ],
      "stateMutability": "view",
      "type": "function"
    },
    {
      "inputs": [],
      "name": "fetchMyNFTs",
      "outputs": [
        {
          "components": [
            {
              "internalType": "uint256",
              "name": "tokenId",
              "type": "uint256"
            },
            {
              "internalType": "address payable",
              "name": "seller",
              "type": "address"
            },
            {
              "internalType": "address payable",
              "name": "owner",
              "type": "address"
            },
            {
              "internalType": "uint256",
              "name": "price",
              "type": "uint256"
            },
            {
              "internalType": "bool",
              "name": "sold",
              "type": "bool"
            }
          ],
          "internalType": "struct Cryptau.MarketItem[]",
          "name": "",
          "type": "tuple[]"
        }
      ],
      "stateMutability": "view",
      "type": "function"
    },
    {
      "inputs": [
        {
          "internalType": "uint256",
          "name": "tokenId",
          "type": "uint256"
        }
      ],
      "name": "getApproved",
      "outputs": [
        {
          "internalType": "address",
          "name": "",
          "type": "address"
        }
      ],
      "stateMutability": "view",
      "type": "function"
    },
    {
      "inputs": [],
      "name": "getListingPrice",
      "outputs": [
        {
          "internalType": "uint256",
          "name": "",
          "type": "uint256"
        }
      ],
      "stateMutability": "view",
      "type": "function"
    },
    {
      "inputs": [
        {
          "internalType": "address",
          "name": "owner",
          "type": "address"
        },
        {
          "internalType": "address",
          "name": "operator",
          "type": "address"
        }
      ],
      "name": "isApprovedForAll",
      "outputs": [
        {
          "internalType": "bool",
          "name": "",
          "type": "bool"
        }
      ],
      "stateMutability": "view",
      "type": "function"
    },
    {
      "inputs": [],
      "name": "name",
      "outputs": [
        {
          "internalType": "string",
          "name": "",
          "type": "string"
        }
      ],
      "stateMutability": "view",
      "type": "function"
    },
    {
      "inputs": [
        {
          "internalType": "uint256",
          "name": "tokenId",
          "type": "uint256"
        }
      ],
      "name": "ownerOf",
      "outputs": [
        {
          "internalType": "address",
          "name": "",
          "type": "address"
        }
      ],
      "stateMutability": "view",
      "type": "function"
    },
    {
      "inputs": [
        {
          "internalType": "uint256",
          "name": "tokenId",
          "type": "uint256"
        },
        {
          "internalType": "uint256",
          "name": "price",
          "type": "uint256"
        }
      ],
      "name": "resellToken",
      "outputs": [],
      "stateMutability": "payable",
      "type": "function"
    },
    {
      "inputs": [
        {
          "internalType": "address",
          "name": "from",
          "type": "address"
        },
        {
          "internalType": "address",
          "name": "to",
          "type": "address"
        },
        {
          "internalType": "uint256",
          "name": "tokenId",
          "type": "uint256"
        }
      ],
      "name": "safeTransferFrom",
      "outputs": [],
      "stateMutability": "nonpayable",
      "type": "function"
    },
    {
      "inputs": [
        {
          "internalType": "address",
          "name": "from",
          "type": "address"
        },
        {
          "internalType": "address",
          "name": "to",
          "type": "address"
        },
        {
          "internalType": "uint256",
          "name": "tokenId",
          "type": "uint256"
        },
        {
          "internalType": "bytes",
          "name": "_data",
          "type": "bytes"
        }
      ],
      "name": "safeTransferFrom",
      "outputs": [],
      "stateMutability": "nonpayable",
      "type": "function"
    },
    {
      "inputs": [
        {
          "internalType": "address",
          "name": "operator",
          "type": "address"
        },
        {
          "internalType": "bool",
          "name": "approved",
          "type": "bool"
        }
      ],
      "name": "setApprovalForAll",
      "outputs": [],
      "stateMutability": "nonpayable",
      "type": "function"
    },
    {
      "inputs": [
        {
          "internalType": "bytes4",
          "name": "interfaceId",
          "type": "bytes4"
        }
      ],
      "name": "supportsInterface",
      "outputs": [
        {
          "internalType": "bool",
          "name": "",
          "type": "bool"
        }
      ],
      "stateMutability": "view",
      "type": "function"
    },
    {
      "inputs": [],
      "name": "symbol",
      "outputs": [
        {
          "internalType": "string",
          "name": "",
          "type": "string"
        }
      ],
      "stateMutability": "view",
      "type": "function"
    },
    {
      "inputs": [
        {
          "internalType": "uint256",
          "name": "tokenId",
          "type": "uint256"
        }
      ],
      "name": "tokenURI",
      "outputs": [
        {
          "internalType": "string",
          "name": "",
          "type": "string"
        }
      ],
      "stateMutability": "view",
      "type": "function"
    },
    {
      "inputs": [
        {
          "internalType": "address",
          "name": "from",
          "type": "address"
        },
        {
          "internalType": "address",
          "name": "to",
          "type": "address"
        },
        {
          "internalType": "uint256",
          "name": "tokenId",
          "type": "uint256"
        }
      ],
      "name": "transferFrom",
      "outputs": [],
      "stateMutability": "nonpayable",
      "type": "function"
    },
    {
      "inputs": [
        {
          "internalType": "uint256",
          "name": "_listingPrice",
          "type": "uint256"
        }
      ],
      "name": "updateListingPrice",
      "outputs": [],
      "stateMutability": "payable",
      "type": "function"
    }
  ],
  "bytecode": "0x60806040526658d15e1762800060095534801561001b57600080fd5b506040518060400160405280600e81526020017f4372797054617520546f6b656e730000000000000000000000000000000000008152506040518060400160405280600981526020017f4d6574617665727365000000000000000000000000000000000000000000000081525081600090816100979190610340565b5080600190816100a79190610340565b50505033600a60006101000a81548173ffffffffffffffffffffffffffffffffffffffff021916908373ffffffffffffffffffffffffffffffffffffffff160217905550610412565b600081519050919050565b7f4e487b7100000000000000000000000000000000000000000000000000000000600052604160045260246000fd5b7f4e487b7100000000000000000000000000000000000000000000000000000000600052602260045260246000fd5b6000600282049050600182168061017157607f821691505b6020821081036101845761018361012a565b5b50919050565b60008190508160005260206000209050919050565b60006020601f8301049050919050565b600082821b905092915050565b6000600883026101ec7fffffffffffffffffffffffffffffffffffffffffffffffffffffffffffffffff826101af565b6101f686836101af565b95508019841693508086168417925050509392505050565b6000819050919050565b6000819050919050565b600061023d6102386102338461020e565b610218565b61020e565b9050919050565b6000819050919050565b61025783610222565b61026b61026382610244565b8484546101bc565b825550505050565b600090565b610280610273565b61028b81848461024e565b505050565b5b818110156102af576102a4600082610278565b600181019050610291565b5050565b601f8211156102f4576102c58161018a565b6102ce8461019f565b810160208510156102dd578190505b6102f16102e98561019f565b830182610290565b50505b505050565b600082821c905092915050565b6000610317600019846008026102f9565b1980831691505092915050565b60006103308383610306565b9150826002028217905092915050565b610349826100f0565b67ffffffffffffffff811115610362576103616100fb565b5b61036c8254610159565b6103778282856102b3565b600060209050601f8311600181146103aa5760008415610398578287015190505b6103a28582610324565b86555061040a565b601f1984166103b88661018a565b60005b828110156103e0578489015182556001820191506020850194506020810190506103bb565b868310156103fd57848901516103f9601f891682610306565b8355505b6001600288020188555050505b505050505050565b614423806104216000396000f3fe60806040526004361061012a5760003560e01c80636352211e116100ab578063ae677aa31161006f578063ae677aa3146103f9578063b88d4fde14610415578063be9af5361461043e578063c87b56dd1461045a578063e219fc7514610497578063e985e9c5146104b35761012a565b80636352211e146102fb57806370a082311461033857806372b3b6201461037557806395d89b41146103a5578063a22cb465146103d05761012a565b8063202e3740116100f2578063202e37401461022857806323b872dd146102535780633143ec871461027c57806342842e0e146102a757806345f8fa80146102d05761012a565b806301ffc9a71461012f57806306fdde031461016c578063081812fc14610197578063095ea7b3146101d457806312e85585146101fd575b600080fd5b34801561013b57600080fd5b5061015660048036038101906101519190612a08565b6104f0565b6040516101639190612a50565b60405180910390f35b34801561017857600080fd5b506101816105d2565b60405161018e9190612afb565b60405180910390f35b3480156101a357600080fd5b506101be60048036038101906101b99190612b53565b610664565b6040516101cb9190612bc1565b60405180910390f35b3480156101e057600080fd5b506101fb60048036038101906101f69190612c08565b6106e9565b005b34801561020957600080fd5b50610212610800565b60405161021f9190612c57565b60405180910390f35b34801561023457600080fd5b5061023d61080a565b60405161024a9190612dc8565b60405180910390f35b34801561025f57600080fd5b5061027a60048036038101906102759190612dea565b610aea565b005b34801561028857600080fd5b50610291610b4a565b60405161029e9190612dc8565b60405180910390f35b3480156102b357600080fd5b506102ce60048036038101906102c99190612dea565b610dac565b005b3480156102dc57600080fd5b506102e5610dcc565b6040516102f29190612dc8565b60405180910390f35b34801561030757600080fd5b50610322600480360381019061031d9190612b53565b6110ac565b60405161032f9190612bc1565b60405180910390f35b34801561034457600080fd5b5061035f600480360381019061035a9190612e3d565b61115d565b60405161036c9190612c57565b60405180910390f35b61038f600480360381019061038a9190612f9f565b611214565b60405161039c9190612c57565b60405180910390f35b3480156103b157600080fd5b506103ba611256565b6040516103c79190612afb565b60405180910390f35b3480156103dc57600080fd5b506103f760048036038101906103f29190613027565b6112e8565b005b610413600480360381019061040e9190612b53565b6112fe565b005b34801561042157600080fd5b5061043c60048036038101906104379190613108565b611398565b005b61045860048036038101906104539190612b53565b6113fa565b005b34801561046657600080fd5b50610481600480360381019061047c9190612b53565b611627565b60405161048e9190612afb565b60405180910390f35b6104b160048036038101906104ac919061318b565b611778565b005b3480156104bf57600080fd5b506104da60048036038101906104d591906131cb565b61196d565b6040516104e79190612a50565b60405180910390f35b60007f80ac58cd000000000000000000000000000000000000000000000000000000007bffffffffffffffffffffffffffffffffffffffffffffffffffffffff1916827bffffffffffffffffffffffffffffffffffffffffffffffffffffffff191614806105bb57507f5b5e139f000000000000000000000000000000000000000000000000000000007bffffffffffffffffffffffffffffffffffffffffffffffffffffffff1916827bffffffffffffffffffffffffffffffffffffffffffffffffffffffff1916145b806105cb57506105ca82611a01565b5b9050919050565b6060600080546105e19061323a565b80601f016020809104026020016040519081016040528092919081815260200182805461060d9061323a565b801561065a5780601f1061062f5761010080835404028352916020019161065a565b820191906000526020600020905b81548152906001019060200180831161063d57829003601f168201915b5050505050905090565b600061066f82611a6b565b6106ae576040517f08c379a00000000000000000000000000000000000000000000000000000000081526004016106a5906132dd565b60405180910390fd5b6004600083815260200190815260200160002060009054906101000a900473ffffffffffffffffffffffffffffffffffffffff169050919050565b60006106f4826110ac565b90508073ffffffffffffffffffffffffffffffffffffffff168373ffffffffffffffffffffffffffffffffffffffff1603610764576040517f08c379a000000000000000000000000000000000000000000000000000000000815260040161075b9061336f565b60405180910390fd5b8073ffffffffffffffffffffffffffffffffffffffff16610783611ad7565b73ffffffffffffffffffffffffffffffffffffffff1614806107b257506107b1816107ac611ad7565b61196d565b5b6107f1576040517f08c379a00000000000000000000000000000000000000000000000000000000081526004016107e890613401565b60405180910390fd5b6107fb8383611adf565b505050565b6000600954905090565b606060006108186007611b98565b905060008060005b838110156108ba573373ffffffffffffffffffffffffffffffffffffffff16600b60006001846108509190613450565b815260200190815260200160002060020160009054906101000a900473ffffffffffffffffffffffffffffffffffffffff1673ffffffffffffffffffffffffffffffffffffffff16036108ad576001836108aa9190613450565b92505b8080600101915050610820565b5060008267ffffffffffffffff8111156108d7576108d6612e74565b5b60405190808252806020026020018201604052801561091057816020015b6108fd61293f565b8152602001906001900390816108f55790505b50905060005b84811015610adf573373ffffffffffffffffffffffffffffffffffffffff16600b60006001846109469190613450565b815260200190815260200160002060020160009054906101000a900473ffffffffffffffffffffffffffffffffffffffff1673ffffffffffffffffffffffffffffffffffffffff1603610ad25760006001826109a29190613450565b90506000600b60008381526020019081526020016000209050806040518060a0016040529081600082015481526020016001820160009054906101000a900473ffffffffffffffffffffffffffffffffffffffff1673ffffffffffffffffffffffffffffffffffffffff1673ffffffffffffffffffffffffffffffffffffffff1681526020016002820160009054906101000a900473ffffffffffffffffffffffffffffffffffffffff1673ffffffffffffffffffffffffffffffffffffffff1673ffffffffffffffffffffffffffffffffffffffff168152602001600382015481526020016004820160009054906101000a900460ff161515151581525050848681518110610ab557610ab4613484565b5b6020026020010181905250600185610acd9190613450565b945050505b8080600101915050610916565b508094505050505090565b610afb610af5611ad7565b82611ba6565b610b3a576040517f08c379a0000000000000000000000000000000000000000000000000000000008152600401610b3190613525565b60405180910390fd5b610b45838383611c84565b505050565b60606000610b586007611b98565b90506000610b666008611b98565b610b706007611b98565b610b7a9190613545565b90506000808267ffffffffffffffff811115610b9957610b98612e74565b5b604051908082528060200260200182016040528015610bd257816020015b610bbf61293f565b815260200190600190039081610bb75790505b50905060005b84811015610da1573073ffffffffffffffffffffffffffffffffffffffff16600b6000600184610c089190613450565b815260200190815260200160002060020160009054906101000a900473ffffffffffffffffffffffffffffffffffffffff1673ffffffffffffffffffffffffffffffffffffffff1603610d94576000600182610c649190613450565b90506000600b60008381526020019081526020016000209050806040518060a0016040529081600082015481526020016001820160009054906101000a900473ffffffffffffffffffffffffffffffffffffffff1673ffffffffffffffffffffffffffffffffffffffff1673ffffffffffffffffffffffffffffffffffffffff1681526020016002820160009054906101000a900473ffffffffffffffffffffffffffffffffffffffff1673ffffffffffffffffffffffffffffffffffffffff1673ffffffffffffffffffffffffffffffffffffffff168152602001600382015481526020016004820160009054906101000a900460ff161515151581525050848681518110610d7757610d76613484565b5b6020026020010181905250600185610d8f9190613450565b945050505b8080600101915050610bd8565b508094505050505090565b610dc783838360405180602001604052806000815250611398565b505050565b60606000610dda6007611b98565b905060008060005b83811015610e7c573373ffffffffffffffffffffffffffffffffffffffff16600b6000600184610e129190613450565b815260200190815260200160002060010160009054906101000a900473ffffffffffffffffffffffffffffffffffffffff1673ffffffffffffffffffffffffffffffffffffffff1603610e6f57600183610e6c9190613450565b92505b8080600101915050610de2565b5060008267ffffffffffffffff811115610e9957610e98612e74565b5b604051908082528060200260200182016040528015610ed257816020015b610ebf61293f565b815260200190600190039081610eb75790505b50905060005b848110156110a1573373ffffffffffffffffffffffffffffffffffffffff16600b6000600184610f089190613450565b815260200190815260200160002060010160009054906101000a900473ffffffffffffffffffffffffffffffffffffffff1673ffffffffffffffffffffffffffffffffffffffff1603611094576000600182610f649190613450565b90506000600b60008381526020019081526020016000209050806040518060a0016040529081600082015481526020016001820160009054906101000a900473ffffffffffffffffffffffffffffffffffffffff1673ffffffffffffffffffffffffffffffffffffffff1673ffffffffffffffffffffffffffffffffffffffff1681526020016002820160009054906101000a900473ffffffffffffffffffffffffffffffffffffffff1673ffffffffffffffffffffffffffffffffffffffff1673ffffffffffffffffffffffffffffffffffffffff168152602001600382015481526020016004820160009054906101000a900460ff16151515158152505084868151811061107757611076613484565b5b602002602001018190525060018561108f9190613450565b945050505b8080600101915050610ed8565b508094505050505090565b6000806002600084815260200190815260200160002060009054906101000a900473ffffffffffffffffffffffffffffffffffffffff169050600073ffffffffffffffffffffffffffffffffffffffff168173ffffffffffffffffffffffffffffffffffffffff1603611154576040517f08c379a000000000000000000000000000000000000000000000000000000000815260040161114b906135eb565b60405180910390fd5b80915050919050565b60008073ffffffffffffffffffffffffffffffffffffffff168273ffffffffffffffffffffffffffffffffffffffff16036111cd576040517f08c379a00000000000000000000000000000000000000000000000000000000081526004016111c49061367d565b60405180910390fd5b600360008373ffffffffffffffffffffffffffffffffffffffff1673ffffffffffffffffffffffffffffffffffffffff168152602001908152602001600020549050919050565b60006112206007611eea565b600061122c6007611b98565b90506112383382611f00565b61124281856120d9565b61124c8184612146565b8091505092915050565b6060600180546112659061323a565b80601f01602080910402602001604051908101604052809291908181526020018280546112919061323a565b80156112de5780601f106112b3576101008083540402835291602001916112de565b820191906000526020600020905b8154815290600101906020018083116112c157829003601f168201915b5050505050905090565b6112fa6112f3611ad7565b8383612349565b5050565b3373ffffffffffffffffffffffffffffffffffffffff16600a60009054906101000a900473ffffffffffffffffffffffffffffffffffffffff1673ffffffffffffffffffffffffffffffffffffffff161461138e576040517f08c379a00000000000000000000000000000000000000000000000000000000081526004016113859061370f565b60405180910390fd5b8060098190555050565b6113a96113a3611ad7565b83611ba6565b6113e8576040517f08c379a00000000000000000000000000000000000000000000000000000000081526004016113df90613525565b60405180910390fd5b6113f4848484846124b5565b50505050565b6000600b6000838152602001908152602001600020600301549050803414611457576040517f08c379a000000000000000000000000000000000000000000000000000000000815260040161144e906137a1565b60405180910390fd5b33600b600084815260200190815260200160002060020160006101000a81548173ffffffffffffffffffffffffffffffffffffffff021916908373ffffffffffffffffffffffffffffffffffffffff1602179055506001600b600084815260200190815260200160002060040160006101000a81548160ff0219169083151502179055506000600b600084815260200190815260200160002060010160006101000a81548173ffffffffffffffffffffffffffffffffffffffff021916908373ffffffffffffffffffffffffffffffffffffffff16021790555061153b6008611eea565b600a60009054906101000a900473ffffffffffffffffffffffffffffffffffffffff1673ffffffffffffffffffffffffffffffffffffffff166108fc6009549081150290604051600060405180830381858888f193505050501580156115a5573d6000803e3d6000fd5b50600b600083815260200190815260200160002060010160009054906101000a900473ffffffffffffffffffffffffffffffffffffffff1673ffffffffffffffffffffffffffffffffffffffff166108fc349081150290604051600060405180830381858888f19350505050158015611622573d6000803e3d6000fd5b505050565b606061163282611a6b565b611671576040517f08c379a000000000000000000000000000000000000000000000000000000000815260040161166890613833565b60405180910390fd5b60006006600084815260200190815260200160002080546116919061323a565b80601f01602080910402602001604051908101604052809291908181526020018280546116bd9061323a565b801561170a5780601f106116df5761010080835404028352916020019161170a565b820191906000526020600020905b8154815290600101906020018083116116ed57829003601f168201915b50505050509050600061171b612511565b90506000815103611730578192505050611773565b60008251111561176557808260405160200161174d92919061388f565b60405160208183030381529060405292505050611773565b61176e84612528565b925050505b919050565b3373ffffffffffffffffffffffffffffffffffffffff16600b600084815260200190815260200160002060020160009054906101000a900473ffffffffffffffffffffffffffffffffffffffff1673ffffffffffffffffffffffffffffffffffffffff161461181c576040517f08c379a000000000000000000000000000000000000000000000000000000000815260040161181390613925565b60405180910390fd5b6009543414611860576040517f08c379a0000000000000000000000000000000000000000000000000000000008152600401611857906139b7565b60405180910390fd5b6000600b600084815260200190815260200160002060040160006101000a81548160ff02191690831515021790555033600b600084815260200190815260200160002060010160006101000a81548173ffffffffffffffffffffffffffffffffffffffff021916908373ffffffffffffffffffffffffffffffffffffffff16021790555030600b600084815260200190815260200160002060020160006101000a81548173ffffffffffffffffffffffffffffffffffffffff021916908373ffffffffffffffffffffffffffffffffffffffff16021790555080600b60008481526020019081526020016000206003018190555061195e60086125cf565b611969333084611c84565b5050565b6000600560008473ffffffffffffffffffffffffffffffffffffffff1673ffffffffffffffffffffffffffffffffffffffff16815260200190815260200160002060008373ffffffffffffffffffffffffffffffffffffffff1673ffffffffffffffffffffffffffffffffffffffff16815260200190815260200160002060009054906101000a900460ff16905092915050565b60007f01ffc9a7000000000000000000000000000000000000000000000000000000007bffffffffffffffffffffffffffffffffffffffffffffffffffffffff1916827bffffffffffffffffffffffffffffffffffffffffffffffffffffffff1916149050919050565b60008073ffffffffffffffffffffffffffffffffffffffff166002600084815260200190815260200160002060009054906101000a900473ffffffffffffffffffffffffffffffffffffffff1673ffffffffffffffffffffffffffffffffffffffff1614159050919050565b600033905090565b816004600083815260200190815260200160002060006101000a81548173ffffffffffffffffffffffffffffffffffffffff021916908373ffffffffffffffffffffffffffffffffffffffff160217905550808273ffffffffffffffffffffffffffffffffffffffff16611b52836110ac565b73ffffffffffffffffffffffffffffffffffffffff167f8c5be1e5ebec7d5bd14f71427d1e84f3dd0314c0f7b2291e5b200ac8c7c3b92560405160405180910390a45050565b600081600001549050919050565b6000611bb182611a6b565b611bf0576040517f08c379a0000000000000000000000000000000000000000000000000000000008152600401611be790613a49565b60405180910390fd5b6000611bfb836110ac565b90508073ffffffffffffffffffffffffffffffffffffffff168473ffffffffffffffffffffffffffffffffffffffff161480611c6a57508373ffffffffffffffffffffffffffffffffffffffff16611c5284610664565b73ffffffffffffffffffffffffffffffffffffffff16145b80611c7b5750611c7a818561196d565b5b91505092915050565b8273ffffffffffffffffffffffffffffffffffffffff16611ca4826110ac565b73ffffffffffffffffffffffffffffffffffffffff1614611cfa576040517f08c379a0000000000000000000000000000000000000000000000000000000008152600401611cf190613adb565b60405180910390fd5b600073ffffffffffffffffffffffffffffffffffffffff168273ffffffffffffffffffffffffffffffffffffffff1603611d69576040517f08c379a0000000000000000000000000000000000000000000000000000000008152600401611d6090613b6d565b60405180910390fd5b611d7483838361262b565b611d7f600082611adf565b6001600360008573ffffffffffffffffffffffffffffffffffffffff1673ffffffffffffffffffffffffffffffffffffffff1681526020019081526020016000206000828254611dcf9190613545565b925050819055506001600360008473ffffffffffffffffffffffffffffffffffffffff1673ffffffffffffffffffffffffffffffffffffffff1681526020019081526020016000206000828254611e269190613450565b92505081905550816002600083815260200190815260200160002060006101000a81548173ffffffffffffffffffffffffffffffffffffffff021916908373ffffffffffffffffffffffffffffffffffffffff160217905550808273ffffffffffffffffffffffffffffffffffffffff168473ffffffffffffffffffffffffffffffffffffffff167fddf252ad1be2c89b69c2b068fc378daa952ba7f163c4a11628f55a4df523b3ef60405160405180910390a4611ee5838383612630565b505050565b6001816000016000828254019250508190555050565b600073ffffffffffffffffffffffffffffffffffffffff168273ffffffffffffffffffffffffffffffffffffffff1603611f6f576040517f08c379a0000000000000000000000000000000000000000000000000000000008152600401611f6690613bd9565b60405180910390fd5b611f7881611a6b565b15611fb8576040517f08c379a0000000000000000000000000000000000000000000000000000000008152600401611faf90613c45565b60405180910390fd5b611fc46000838361262b565b6001600360008473ffffffffffffffffffffffffffffffffffffffff1673ffffffffffffffffffffffffffffffffffffffff16815260200190815260200160002060008282546120149190613450565b92505081905550816002600083815260200190815260200160002060006101000a81548173ffffffffffffffffffffffffffffffffffffffff021916908373ffffffffffffffffffffffffffffffffffffffff160217905550808273ffffffffffffffffffffffffffffffffffffffff16600073ffffffffffffffffffffffffffffffffffffffff167fddf252ad1be2c89b69c2b068fc378daa952ba7f163c4a11628f55a4df523b3ef60405160405180910390a46120d560008383612630565b5050565b6120e282611a6b565b612121576040517f08c379a000000000000000000000000000000000000000000000000000000000815260040161211890613cd7565b60405180910390fd5b806006600084815260200190815260200160002090816121419190613ea3565b505050565b60008111612189576040517f08c379a000000000000000000000000000000000000000000000000000000000815260040161218090613fc1565b60405180910390fd5b60095434146121cd576040517f08c379a00000000000000000000000000000000000000000000000000000000081526004016121c4906139b7565b60405180910390fd5b6040518060a001604052808381526020013373ffffffffffffffffffffffffffffffffffffffff1681526020013073ffffffffffffffffffffffffffffffffffffffff16815260200182815260200160001515815250600b60008481526020019081526020016000206000820151816000015560208201518160010160006101000a81548173ffffffffffffffffffffffffffffffffffffffff021916908373ffffffffffffffffffffffffffffffffffffffff16021790555060408201518160020160006101000a81548173ffffffffffffffffffffffffffffffffffffffff021916908373ffffffffffffffffffffffffffffffffffffffff1602179055506060820151816003015560808201518160040160006101000a81548160ff021916908315150217905550905050612306333084611c84565b817fb640004f1d14576d0c209e240cad0410e0d8c0c33a09375861fbadae2588a98d333084600060405161233d9493929190613ff0565b60405180910390a25050565b8173ffffffffffffffffffffffffffffffffffffffff168373ffffffffffffffffffffffffffffffffffffffff16036123b7576040517f08c379a00000000000000000000000000000000000000000000000000000000081526004016123ae90614081565b60405180910390fd5b80600560008573ffffffffffffffffffffffffffffffffffffffff1673ffffffffffffffffffffffffffffffffffffffff16815260200190815260200160002060008473ffffffffffffffffffffffffffffffffffffffff1673ffffffffffffffffffffffffffffffffffffffff16815260200190815260200160002060006101000a81548160ff0219169083151502179055508173ffffffffffffffffffffffffffffffffffffffff168373ffffffffffffffffffffffffffffffffffffffff167f17307eab39ab6107e8899845ad3d59bd9653f200f220920489ca2b5937696c31836040516124a89190612a50565b60405180910390a3505050565b6124c0848484611c84565b6124cc84848484612635565b61250b576040517f08c379a000000000000000000000000000000000000000000000000000000000815260040161250290614113565b60405180910390fd5b50505050565b606060405180602001604052806000815250905090565b606061253382611a6b565b612572576040517f08c379a0000000000000000000000000000000000000000000000000000000008152600401612569906141a5565b60405180910390fd5b600061257c612511565b9050600081511161259c57604051806020016040528060008152506125c7565b806125a6846127bc565b6040516020016125b792919061388f565b6040516020818303038152906040525b915050919050565b6000816000015490506000811161261b576040517f08c379a000000000000000000000000000000000000000000000000000000000815260040161261290614211565b60405180910390fd5b6001810382600001819055505050565b505050565b505050565b60006126568473ffffffffffffffffffffffffffffffffffffffff1661291c565b156127af578373ffffffffffffffffffffffffffffffffffffffff1663150b7a0261267f611ad7565b8786866040518563ffffffff1660e01b81526004016126a19493929190614286565b6020604051808303816000875af19250505080156126dd57506040513d601f19601f820116820180604052508101906126da91906142e7565b60015b61275f573d806000811461270d576040519150601f19603f3d011682016040523d82523d6000602084013e612712565b606091505b506000815103612757576040517f08c379a000000000000000000000000000000000000000000000000000000000815260040161274e90614113565b60405180910390fd5b805181602001fd5b63150b7a0260e01b7bffffffffffffffffffffffffffffffffffffffffffffffffffffffff1916817bffffffffffffffffffffffffffffffffffffffffffffffffffffffff1916149150506127b4565b600190505b949350505050565b606060008203612803576040518060400160405280600181526020017f30000000000000000000000000000000000000000000000000000000000000008152509050612917565b600082905060005b6000821461283557808061281e90614314565b915050600a8261282e919061438b565b915061280b565b60008167ffffffffffffffff81111561285157612850612e74565b5b6040519080825280601f01601f1916602001820160405280156128835781602001600182028036833780820191505090505b5090505b600085146129105760018261289c9190613545565b9150600a856128ab91906143bc565b60306128b79190613450565b60f81b8183815181106128cd576128cc613484565b5b60200101907effffffffffffffffffffffffffffffffffffffffffffffffffffffffffffff1916908160001a905350600a85612909919061438b565b9450612887565b8093505050505b919050565b6000808273ffffffffffffffffffffffffffffffffffffffff163b119050919050565b6040518060a0016040528060008152602001600073ffffffffffffffffffffffffffffffffffffffff168152602001600073ffffffffffffffffffffffffffffffffffffffff168152602001600081526020016000151581525090565b6000604051905090565b600080fd5b600080fd5b60007fffffffff0000000000000000000000000000000000000000000000000000000082169050919050565b6129e5816129b0565b81146129f057600080fd5b50565b600081359050612a02816129dc565b92915050565b600060208284031215612a1e57612a1d6129a6565b5b6000612a2c848285016129f3565b91505092915050565b60008115159050919050565b612a4a81612a35565b82525050565b6000602082019050612a656000830184612a41565b92915050565b600081519050919050565b600082825260208201905092915050565b60005b83811015612aa5578082015181840152602081019050612a8a565b60008484015250505050565b6000601f19601f8301169050919050565b6000612acd82612a6b565b612ad78185612a76565b9350612ae7818560208601612a87565b612af081612ab1565b840191505092915050565b60006020820190508181036000830152612b158184612ac2565b905092915050565b6000819050919050565b612b3081612b1d565b8114612b3b57600080fd5b50565b600081359050612b4d81612b27565b92915050565b600060208284031215612b6957612b686129a6565b5b6000612b7784828501612b3e565b91505092915050565b600073ffffffffffffffffffffffffffffffffffffffff82169050919050565b6000612bab82612b80565b9050919050565b612bbb81612ba0565b82525050565b6000602082019050612bd66000830184612bb2565b92915050565b612be581612ba0565b8114612bf057600080fd5b50565b600081359050612c0281612bdc565b92915050565b60008060408385031215612c1f57612c1e6129a6565b5b6000612c2d85828601612bf3565b9250506020612c3e85828601612b3e565b9150509250929050565b612c5181612b1d565b82525050565b6000602082019050612c6c6000830184612c48565b92915050565b600081519050919050565b600082825260208201905092915050565b6000819050602082019050919050565b612ca781612b1d565b82525050565b6000612cb882612b80565b9050919050565b612cc881612cad565b82525050565b612cd781612a35565b82525050565b60a082016000820151612cf36000850182612c9e565b506020820151612d066020850182612cbf565b506040820151612d196040850182612cbf565b506060820151612d2c6060850182612c9e565b506080820151612d3f6080850182612cce565b50505050565b6000612d518383612cdd565b60a08301905092915050565b6000602082019050919050565b6000612d7582612c72565b612d7f8185612c7d565b9350612d8a83612c8e565b8060005b83811015612dbb578151612da28882612d45565b9750612dad83612d5d565b925050600181019050612d8e565b5085935050505092915050565b60006020820190508181036000830152612de28184612d6a565b905092915050565b600080600060608486031215612e0357612e026129a6565b5b6000612e1186828701612bf3565b9350506020612e2286828701612bf3565b9250506040612e3386828701612b3e565b9150509250925092565b600060208284031215612e5357612e526129a6565b5b6000612e6184828501612bf3565b91505092915050565b600080fd5b600080fd5b7f4e487b7100000000000000000000000000000000000000000000000000000000600052604160045260246000fd5b612eac82612ab1565b810181811067ffffffffffffffff82111715612ecb57612eca612e74565b5b80604052505050565b6000612ede61299c565b9050612eea8282612ea3565b919050565b600067ffffffffffffffff821115612f0a57612f09612e74565b5b612f1382612ab1565b9050602081019050919050565b82818337600083830152505050565b6000612f42612f3d84612eef565b612ed4565b905082815260208101848484011115612f5e57612f5d612e6f565b5b612f69848285612f20565b509392505050565b600082601f830112612f8657612f85612e6a565b5b8135612f96848260208601612f2f565b91505092915050565b60008060408385031215612fb657612fb56129a6565b5b600083013567ffffffffffffffff811115612fd457612fd36129ab565b5b612fe085828601612f71565b9250506020612ff185828601612b3e565b9150509250929050565b61300481612a35565b811461300f57600080fd5b50565b60008135905061302181612ffb565b92915050565b6000806040838503121561303e5761303d6129a6565b5b600061304c85828601612bf3565b925050602061305d85828601613012565b9150509250929050565b600067ffffffffffffffff82111561308257613081612e74565b5b61308b82612ab1565b9050602081019050919050565b60006130ab6130a684613067565b612ed4565b9050828152602081018484840111156130c7576130c6612e6f565b5b6130d2848285612f20565b509392505050565b600082601f8301126130ef576130ee612e6a565b5b81356130ff848260208601613098565b91505092915050565b60008060008060808587031215613122576131216129a6565b5b600061313087828801612bf3565b945050602061314187828801612bf3565b935050604061315287828801612b3e565b925050606085013567ffffffffffffffff811115613173576131726129ab565b5b61317f878288016130da565b91505092959194509250565b600080604083850312156131a2576131a16129a6565b5b60006131b085828601612b3e565b92505060206131c185828601612b3e565b9150509250929050565b600080604083850312156131e2576131e16129a6565b5b60006131f085828601612bf3565b925050602061320185828601612bf3565b9150509250929050565b7f4e487b7100000000000000000000000000000000000000000000000000000000600052602260045260246000fd5b6000600282049050600182168061325257607f821691505b6020821081036132655761326461320b565b5b50919050565b7f4552433732313a20617070726f76656420717565727920666f72206e6f6e657860008201527f697374656e7420746f6b656e0000000000000000000000000000000000000000602082015250565b60006132c7602c83612a76565b91506132d28261326b565b604082019050919050565b600060208201905081810360008301526132f6816132ba565b9050919050565b7f4552433732313a20617070726f76616c20746f2063757272656e74206f776e6560008201527f7200000000000000000000000000000000000000000000000000000000000000602082015250565b6000613359602183612a76565b9150613364826132fd565b604082019050919050565b600060208201905081810360008301526133888161334c565b9050919050565b7f4552433732313a20617070726f76652063616c6c6572206973206e6f74206f7760008201527f6e6572206e6f7220617070726f76656420666f7220616c6c0000000000000000602082015250565b60006133eb603883612a76565b91506133f68261338f565b604082019050919050565b6000602082019050818103600083015261341a816133de565b9050919050565b7f4e487b7100000000000000000000000000000000000000000000000000000000600052601160045260246000fd5b600061345b82612b1d565b915061346683612b1d565b925082820190508082111561347e5761347d613421565b5b92915050565b7f4e487b7100000000000000000000000000000000000000000000000000000000600052603260045260246000fd5b7f4552433732313a207472616e736665722063616c6c6572206973206e6f74206f60008201527f776e6572206e6f7220617070726f766564000000000000000000000000000000602082015250565b600061350f603183612a76565b915061351a826134b3565b604082019050919050565b6000602082019050818103600083015261353e81613502565b9050919050565b600061355082612b1d565b915061355b83612b1d565b925082820390508181111561357357613572613421565b5b92915050565b7f4552433732313a206f776e657220717565727920666f72206e6f6e657869737460008201527f656e7420746f6b656e0000000000000000000000000000000000000000000000602082015250565b60006135d5602983612a76565b91506135e082613579565b604082019050919050565b60006020820190508181036000830152613604816135c8565b9050919050565b7f4552433732313a2062616c616e636520717565727920666f7220746865207a6560008201527f726f206164647265737300000000000000000000000000000000000000000000602082015250565b6000613667602a83612a76565b91506136728261360b565b604082019050919050565b600060208201905081810360008301526136968161365a565b9050919050565b7f4f6e6c79206d61726b6574706c616365206f776e65722063616e20757064617460008201527f6520746865206c697374696e6720707269636500000000000000000000000000602082015250565b60006136f9603383612a76565b91506137048261369d565b604082019050919050565b60006020820190508181036000830152613728816136ec565b9050919050565b7f506c65617365207375626d6974207468652061736b696e67207072696365206960008201527f6e206f7264657220746f20636f6d706c65746520746865207075726368617365602082015250565b600061378b604083612a76565b91506137968261372f565b604082019050919050565b600060208201905081810360008301526137ba8161377e565b9050919050565b7f45524337323155524953746f726167653a2055524920717565727920666f722060008201527f6e6f6e6578697374656e7420746f6b656e000000000000000000000000000000602082015250565b600061381d603183612a76565b9150613828826137c1565b604082019050919050565b6000602082019050818103600083015261384c81613810565b9050919050565b600081905092915050565b600061386982612a6b565b6138738185613853565b9350613883818560208601612a87565b80840191505092915050565b600061389b828561385e565b91506138a7828461385e565b91508190509392505050565b7f4f6e6c79206974656d206f776e65722063616e20706572666f726d207468697360008201527f206f7065726174696f6e00000000000000000000000000000000000000000000602082015250565b600061390f602a83612a76565b915061391a826138b3565b604082019050919050565b6000602082019050818103600083015261393e81613902565b9050919050565b7f5072696365206d75737420626520657175616c20746f206c697374696e67207060008201527f7269636500000000000000000000000000000000000000000000000000000000602082015250565b60006139a1602483612a76565b91506139ac82613945565b604082019050919050565b600060208201905081810360008301526139d081613994565b9050919050565b7f4552433732313a206f70657261746f7220717565727920666f72206e6f6e657860008201527f697374656e7420746f6b656e0000000000000000000000000000000000000000602082015250565b6000613a33602c83612a76565b9150613a3e826139d7565b604082019050919050565b60006020820190508181036000830152613a6281613a26565b9050919050565b7f4552433732313a207472616e736665722066726f6d20696e636f72726563742060008201527f6f776e6572000000000000000000000000000000000000000000000000000000602082015250565b6000613ac5602583612a76565b9150613ad082613a69565b604082019050919050565b60006020820190508181036000830152613af481613ab8565b9050919050565b7f4552433732313a207472616e7366657220746f20746865207a65726f2061646460008201527f7265737300000000000000000000000000000000000000000000000000000000602082015250565b6000613b57602483612a76565b9150613b6282613afb565b604082019050919050565b60006020820190508181036000830152613b8681613b4a565b9050919050565b7f4552433732313a206d696e7420746f20746865207a65726f2061646472657373600082015250565b6000613bc3602083612a76565b9150613bce82613b8d565b602082019050919050565b60006020820190508181036000830152613bf281613bb6565b9050919050565b7f4552433732313a20746f6b656e20616c7265616479206d696e74656400000000600082015250565b6000613c2f601c83612a76565b9150613c3a82613bf9565b602082019050919050565b60006020820190508181036000830152613c5e81613c22565b9050919050565b7f45524337323155524953746f726167653a2055524920736574206f66206e6f6e60008201527f6578697374656e7420746f6b656e000000000000000000000000000000000000602082015250565b6000613cc1602e83612a76565b9150613ccc82613c65565b604082019050919050565b60006020820190508181036000830152613cf081613cb4565b9050919050565b60008190508160005260206000209050919050565b60006020601f8301049050919050565b600082821b905092915050565b600060088302613d597fffffffffffffffffffffffffffffffffffffffffffffffffffffffffffffffff82613d1c565b613d638683613d1c565b95508019841693508086168417925050509392505050565b6000819050919050565b6000613da0613d9b613d9684612b1d565b613d7b565b612b1d565b9050919050565b6000819050919050565b613dba83613d85565b613dce613dc682613da7565b848454613d29565b825550505050565b600090565b613de3613dd6565b613dee818484613db1565b505050565b5b81811015613e1257613e07600082613ddb565b600181019050613df4565b5050565b601f821115613e5757613e2881613cf7565b613e3184613d0c565b81016020851015613e40578190505b613e54613e4c85613d0c565b830182613df3565b50505b505050565b600082821c905092915050565b6000613e7a60001984600802613e5c565b1980831691505092915050565b6000613e938383613e69565b9150826002028217905092915050565b613eac82612a6b565b67ffffffffffffffff811115613ec557613ec4612e74565b5b613ecf825461323a565b613eda828285613e16565b600060209050601f831160018114613f0d5760008415613efb578287015190505b613f058582613e87565b865550613f6d565b601f198416613f1b86613cf7565b60005b82811015613f4357848901518255600182019150602085019450602081019050613f1e565b86831015613f605784890151613f5c601f891682613e69565b8355505b6001600288020188555050505b505050505050565b7f5072696365206d7573742062652061746c656173742031000000000000000000600082015250565b6000613fab601783612a76565b9150613fb682613f75565b602082019050919050565b60006020820190508181036000830152613fda81613f9e565b9050919050565b613fea81612cad565b82525050565b60006080820190506140056000830187613fe1565b6140126020830186613fe1565b61401f6040830185612c48565b61402c6060830184612a41565b95945050505050565b7f4552433732313a20617070726f766520746f2063616c6c657200000000000000600082015250565b600061406b601983612a76565b915061407682614035565b602082019050919050565b6000602082019050818103600083015261409a8161405e565b9050919050565b7f4552433732313a207472616e7366657220746f206e6f6e20455243373231526560008201527f63656976657220696d706c656d656e7465720000000000000000000000000000602082015250565b60006140fd603283612a76565b9150614108826140a1565b604082019050919050565b6000602082019050818103600083015261412c816140f0565b9050919050565b7f4552433732314d657461646174613a2055524920717565727920666f72206e6f60008201527f6e6578697374656e7420746f6b656e0000000000000000000000000000000000602082015250565b600061418f602f83612a76565b915061419a82614133565b604082019050919050565b600060208201905081810360008301526141be81614182565b9050919050565b7f436f756e7465723a2064656372656d656e74206f766572666c6f770000000000600082015250565b60006141fb601b83612a76565b9150614206826141c5565b602082019050919050565b6000602082019050818103600083015261422a816141ee565b9050919050565b600081519050919050565b600082825260208201905092915050565b600061425882614231565b614262818561423c565b9350614272818560208601612a87565b61427b81612ab1565b840191505092915050565b600060808201905061429b6000830187612bb2565b6142a86020830186612bb2565b6142b56040830185612c48565b81810360608301526142c7818461424d565b905095945050505050565b6000815190506142e1816129dc565b92915050565b6000602082840312156142fd576142fc6129a6565b5b600061430b848285016142d2565b91505092915050565b600061431f82612b1d565b91507fffffffffffffffffffffffffffffffffffffffffffffffffffffffffffffffff820361435157614350613421565b5b600182019050919050565b7f4e487b7100000000000000000000000000000000000000000000000000000000600052601260045260246000fd5b600061439682612b1d565b91506143a183612b1d565b9250826143b1576143b061435c565b5b828204905092915050565b60006143c782612b1d565b91506143d283612b1d565b9250826143e2576143e161435c565b5b82820690509291505056fea26469706673582212202107531922f6949ab620959fd8d80672f71580d4be0e3287b79262870132f08d64736f6c634300081c0033",
  "linkReferences": {},
  "deployedLinkReferences": {}
}